S013000048616E642053797374656D2E73726563F1
S11300000C946B000C9488000C9488000C94880069
S11300100C9488000C9488000C9488000C9488003C
S11300200C9488000C9488000C9488000C9488002C
S11300300C9488000C9488000C9488000C9488001C
S11300400C9488000C9488000C9488000C9488000C
S11300500C9488000C9488000C9488000C948800FC
S11300600C9488000C948800084AD73B3BCE016E60
S113007084BCBFFDC12F3D6C74319ABD56833DDAFB
S11300803D00C77F11BED9E4BB4C3E916BAAAABE0A
S1130090000000803F05A84CCDB2D44EB93836A933
S11300A0020C50B9918688083CA6AAAA2ABE000070
S11300B000803F0664EC1B3C04BC163E3BE5B93CA7
S11300C0C93C37C29E5A3D660498083EEA69AAAA0A
S11300D03E000000803F11241FBECFEFD8E0DEBFFA
S11300E0CDBF11E0A0E0B1E0EAECFAE102C0059076
S11300F00D92A233B107D9F721E0A2E3B1E001C028
S11301001D92A036B207E1F70E9442020C94630DDF
S11301100C9400005C9A08955C98089583E58CBD66
S11301201DBC0E948C000895CF93DF93D82FC62F57
S11301300E948C00DEBD0DB407FEFDCFCEBD0DB414
S113014007FEFDCF0E948A00DF91CF91089560E8F9
S11301508BE60E9494008FE891E00197F1F700C0CC
S1130160000060E081E00E9494008FE891E0019734
S1130170F1F700C0000063E08BE60E9494008FE872
S113018091E00197F1F700C0000060E18AE60E9467
S113019094008FE891E00197F1F700C0000064E05B
S11301A089E10E9494008FE891E00197F1F700C083
S11301B0000063E08AE10E9494008FE891E00197D7
S11301C0F1F700C0000060E08BE10E9494008FE82A
S11301D091E00197F1F700C0000060E08CE10E941B
S11301E094008FE891E00197F1F700C0000060E40B
S11301F088E30E9494000895CF93C82F0E948C0036
S1130200CEBD0DB407FEFDCF0E948A008EB590E0EE
S1130210CF910895CF938BEB0E94FC008BE30E9457
S1130220FC00C82F8CE30E94FC003C2F20E0822BB2
S1130230932B90934301809342018DEB0E94FC0029
S11302408DE30E94FC00C82F8EE30E94FC003C2F2B
S113025020E0822B932B90934501809344018FEBF4
S11302600E94FC008FE30E94FC00C82F80E40E94DF
S1130270FC003C2F20E0822B932B9093470180932A
S1130280460183EC0E94FC0083E40E94FC00C82F1A
S113029084E40E94FC003C2F20E0822B932B90935B
S11302A049018093480185EC0E94FC0085E40E948A
S11302B0FC00C82F86E40E94FC003C2F20E0822B27
S11302C0932B90934B0180934A0187EC0E94FC008E
S11302D087E40E94FC00C82F88E40E94FC003C2FA5
S11302E020E0822B932B90934D0180934C0181EC61
S11302F00E94FC0081E40E94FC00C82F82E40E945A
S1130300FC003C2F20E0822B932B9093410180939F
S11303104001CF9108952F923F924F925F926F9236
S11303207F928F929F92AF92BF92CF92DF92EF9281
S1130330FF920F931F93CF93DF9310923B01109280
S11303403A01109235011092340110923D0110923D
S11303503C01109237011092360110923F01109225
S11303603E0110923901109238011092330110921B
S113037032010F2EFFE0EF2EF12CF02D0AE311E0F5
S11303800F2EF2E46F2EF1E07F2EF02D0F2EF8E405
S11303904F2EF1E05F2EF02D0F2EF3E02F2E312C97
S11303A0F02D0E940A015801A3010F2EF4E38F2EB1
S11303B0F1E09F2EF02D9201D401F801C101EA0170
S11303C069917991AE01C080D1806C0D7D1D6193DE
S11303D07193E901699179919E01CD90DC90119717
S11303E06C0D7D1D6D937D93019749F7209132012A
S11303F0309133018091400190914101820F931F0C
S11304009093330180933201D1E0ED1AF10849F65B
S1130410E0E4F1E02FE030E0D5018D919C91B90149
S11304200E94230AE501699379935E01D4018D91B9
S11304309C91B9010E94230AE401699379934E01C6
S1130440AE16BF0649F780913201909133016FE0F7
S113045070E00E94230A7093330160933201DF91AC
S1130460CF911F910F91FF90EF90DF90CF90BF90AD
S1130470AF909F908F907F906F905F904F903F9040
S11304802F900895CF93DF93CDB7DEB7A1970FB622
S1130490F894DEBF0FBECDBF40E054E264EF70E0DD
S11304A080E895E20E947F0680E78AB98CE284B9ED
S11304B00E948E000E94A70021E030E03A8F298F2D
S11304C002C01A8E198E0E948B01AAE3B1E06D91CD
S11304D07C91882777FD8095982F0E94160820E04C
S11304E030E040E858E30E942F092B013C01ECE383
S11304F0F1E060817181882777FD8095982F0E94B3
S1130500160820E030E040E858E30E942F094B0130
S11305105C01AEE3B1E06D917C91882777FD809515
S1130520982F0E94160820E030E040E858E30E942B
S11305302F09362E072F182F292EA5019401C50146
S1130540B4010E942F096B017C01A3019201C30134
S1130550B2010E942F099B01AC01C701B6010E94A0
S1130560AE066B017C01232D302F412F522D632DBC
S1130570702F812F922D0E942F099B01AC01C7017E
S1130580B6010E94AE060E949C096B017C019B018E
S1130590AC01C301B2010E947B0720E030E048ECCB
S11305A052E40E942F09762E672E582E492E862F4C
S11305B0962DA52DB42D89839A83AB83BC83A70183
S11305C09601C501B4010E947B0720E030E048ECAD
S11305D052E40E942F09862E972EA82EB92E862F1C
S11305E0992DAA2DBB2D8D839E83AF83B887A70138
S11305F09601632D702F812F922D0E947B0720E09E
S113060030E048EC52E40E942F09E62EF72E082F22
S1130610192F862F9F2DA02FB12F89879A87AB87FB
S1130620BC8720E030E040EA52E4682D792D8A2D21
S11306309B2D0E94240918160CF073C020E030E0B2
S113064040E251EC6E2D7F2D802F912F0E94740774
S113065088233CF520E030E040EA51E4672D762D14
S1130660852D942D0E9474078823DCF420E030E06B
S113067040EA51EC672D762D852D942D0E94240996
S113068018160CF01CC38EE091E00E94810ABFEFA3
S1130690E4E3FCE0B150E040F040E1F700C00000CA
S11306A073C020E030E040E251E46E2D7F2D802FB6
S11306B0912F0E942409181634F520E030E040EA16
S11306C051E4672D762D852D942D0E94740788237F
S11306D0D4F420E030E040EA51EC672D762D852DEE
S11306E0942D0E942409181674F486E191E00E9466
S11306F0810A2FEF34E38CE0215030408040E1F751
S113070000C0000041C08FE191E00E94810A9FEF88
S1130710A4E3BCE09150A040B040E1F700C0000069
S113072033C020E030E048E452EC672D762D852D6F
S1130730942D0E947407882374F484E291E00E944B
S1130740810AEFEFF4E32CE0E150F0402040E1F7C0
S113075000C0000019C020E030E048E452E4672DF6
S1130760762D852D942D0E94240918166CF48AE2A6
S113077091E00E94810A3FEF84E39CE03150804085
S11307809040E1F700C00000A4E3B1E0ED90FC90DC
S1130790E6E3F1E000811181298D3A8D232BF9F0F4
S11307A089819A81AB81BC81EEE4F1E080839183FD
S11307B0A283B3838D819E81AF81B885E2E5F1E0A8
S11307C080839183A283B38389859A85AB85BC8515
S11307D0E6E5F1E080839183A283B38372CEA6E53C
S11307E0B1E08D909D90AD90BC90C501B4010E9484
S11307F0E30777231CF4719561957109882777FDC8
S11308008095982F0E9416082DEC3CEC4CEC5DE38F
S11308100E9474078823FCF4EEE4F1E08081918166
S1130820A281B3818D879E87AF87B88BE2E5F1E023
S113083080819181A281B381898B9A8BAB8BBC8B94
S1130840E6E5F1E080819181A281B3818D8B9E8B5D
S1130850AF8BB88F64C1AEE4B1E06D917D918D91A1
S11308609C91A50194010E94210720E030E044E31B
S113087053E40E942F092BED3FE049E450E40E9429
S11308807B07662E772EC82ED92EE2E5F1E0608133
S1130890718182819381A50194010E94210720E046
S11308A030E044E353E40E942F092BED3FE049E498
S11308B050E40E947B07862E972EA82EB92EB801ED
S11308C0882777FD8095982F0E94160820E030E055
S11308D043E053E40E947B072AE037ED43EA5BE3FD
S11308E00E942F09282D392D4A2D5B2D0E94AE061A
S11308F0A62EB72E082F192FB701882777FD8095CC
S1130900982F0E94160820E030E043E053E40E9450
S11309107B072AE037ED43EA5BE30E942F09262D8B
S1130920372D4C2D5D2D0E94AE062BED3FE049E4A2
S113093050E40E942F0920E030E044E353E40E9495
S11309407B07698F7D8F8E8F9F8F0E9478076B0145
S11309507C0120E030E0A9010E94240988232CF0C6
S113096021E030E039A328A304C08FEF9FEF99A3BF
S113097088A3598D4D8D3E8D2F8D652F742F832F18
S1130980922F0E9492092B013C012BED3FE049E498
S113099050E46A2D7B2D802F912F0E942F0920E097
S11309A030E044E353E40E947B07362E072F182FD0
S11309B0292E812F0E94DD094B015C01A7019601BC
S11309C0C701B6010E942F096B017C01A5019401A6
S11309D0C501B4010E942F099B01AC01C701B601F6
S11309E00E942F0920E030E040E85FE30E94AE0659
S11309F00E949C099B01AC01C301B2010E947B07C8
S1130A00962EA72EB82E892E862F9A2DAB2DB82D73
S1130A108D879E87AF87B88B632D702F812F922D82
S1130A200E9492096B017C01632D702F812F922DFE
S1130A300E9478072B013C01598D4D8D3E8D2F8DE1
S1130A40652F742F832F922F0E94DD099B01AC0127
S1130A500E942F09698F7A8F8B8F9C8FA30192013B
S1130A60C301B2010E942F099B01AC01698D7A8DEB
S1130A708B8D9C8D0E942F0920E030E040E85FE3DD
S1130A800E94AE060E949C099B01AC01C701B601FD
S1130A900E947B07E62EF72E082F192F862F9F2DF5
S1130AA0A02FB12F898B9A8BAB8BBC8B292D3A2D20
S1130AB04B2D582D692D7A2D8B2D982D0E942F09A1
S1130AC09B01AC0160E070E080E89FE30E94AD060A
S1130AD04B015C012E2D3F2D402F512F6E2D7F2D6C
S1130AE0802F912F0E942F099B01AC01C501B401F5
S1130AF00E94AD060E949C096B017C01A8A1B9A1CA
S1130B00BD01882777FD8095982F0E941608A701BC
S1130B1096010E942F096D8B7E8B8F8B988F20E01E
S1130B2030E040E251E46D857E858F8598890E948E
S1130B302F0929813A814B815C810E94AE0620E015
S1130B4030E040E351E40E947B07C62ED72EE82E06
S1130B50F92E862F9D2DAE2DBF2DEEE4F1E080837E
S1130B609183A283B38320E030E040E251E46989B9
S1130B707A898B899C890E942F092D813E814F811E
S1130B8058850E94AE0620E030E040E351E40E9424
S1130B907B07662E772E882E992E862F972DA82DCB
S1130BA0B92DE2E5F1E080839183A283B38320E051
S1130BB030E040E251E46D897E898F89988D0E94EE
S1130BC02F0929853A854B855C850E94AE0620E075
S1130BD030E040E351E40E947B07A62EB72E082F95
S1130BE0192F862F9B2DA02FB12FE6E5F1E08083EE
S1130BF09183A283B383262D372D482D592D662D3D
S1130C00772D882D992D0E942F092B013C012C2D25
S1130C103D2D4E2D5F2D6C2D7D2D8E2D9F2D0E94F3
S1130C202F099B01AC01C301B2010E94AE066B0106
S1130C307C012A2D3B2D402F512F6A2D7B2D802F97
S1130C40912F0E942F099B01AC01C701B6010E949C
S1130C50AE060E949C096B017C010EE411E0A70121
S1130C609601D8016D917D918D919C910E947B0795
S1130C70E62FF72F462F572F682F792FD8014D9342
S1130C805D936D937D938D0120E030E048EC52E458
S1130C906E2F7F2F0E942F090E94E3077F936F938B
S1130CA0EFE2F1E0FF93EF930E946D0A0F900F9033
S1130CB00F900F9031E00A35130789F602CC20E03B
S1130CC030E040E251E46E2D7F2D802F912F0E9461
S1130CD0240918160CF4FDCC16CDCF93C82F8A30F6
S1130CE019F48DE00E946D06E0ECF0E0908195FF30
S1130CF0FDCFC093C60080E090E0CF9108959C01A1
S1130D00CB01BA01689413F8969587957795679502
S1130D101694D1F740E050E00E94370ADA01C90185
S1130D200197A109B109492F5A2F6B2F77274093B7
S1130D30C5008093C40088E18093C10086E080935D
S1130D40C200E0ECF0E080818D7F808380E091E060
S1130D5090935D0180935C0108955058BB27AA27A6
S1130D600ED027C2F0D130F0F5D120F031F49F3FFE
S1130D7011F41EF4C0C10EF4E095E7FBB6C1E92FEF
S1130D803AD280F3BA17620773078407950718F0FD
S1130D9071F49EF552C20EF4E0950B2EBA2FA02DDD
S1130DA00B01B90190010C01CA01A0011124FF2714
S1130DB0591B99F0593F50F4503E68F11A16F0400F
S1130DC0A22F232F342F4427585FF3CF469537950E
S1130DD02795A795F0405395C9F77EF41F16BA0BD3
S1130DE0620B730B840BBAF09150A1F0FF0FBB1F81
S1130DF0661F771F881FC2F70EC0BA0F621F731FCA
S1130E00841F48F4879577956795B795F7959E3F26
S1130E1008F0B3CF9395880F08F09927EE0F9795B4
S1130E208795089590D158F080E891E009F49EEFF9
S1130E3091D128F040E851E059F45EEF09C05BC15C
S1130E40FCC1E92FE078D7D168F3092E052AC1F354
S1130E50261737074807590738F00E2E07F8E025FC
S1130E6069F0E025E0640AC0EF6307F8009407FA2C
S1130E70DB01B9019D01DC01CA01AD01EF934AD048
S1130E8098D10AD05F91552331F02BED3FE049E42E
S1130E9050FD49EC63CF0895DF93DD27B92FBF7769
S1130EA040E85FE31616170648075B0710F4D92FCE
S1130EB0CFD19F938F937F936F937CD2E8E6F0E03A
S1130EC01DD177D12F913F914F915F91D4D1DD23E3
S1130ED049F09058A2EA2AED3FE049EC5FE3D0786C
S1130EE05D274DDFDF9165C1DCD008F481E0089512
S1130EF039D1E3956FC10CD05CC12CD140F023D122
S1130F0030F021F45F3F19F0F0C0511197C1F3C0E4
S1130F1072D198F39923C9F35523B1F3951B550B5B
S1130F20BB27AA2762177307840738F09F5F5F4FB8
S1130F30220F331F441FAA1FA9F333D00E2E3AF0F9
S1130F40E0E830D091505040E695001CCAF729D013
S1130F50FE2F27D0660F771F881FBB1F2617370762
S1130F604807AB07B0E809F0BB0B802DBF01FF2792
S1130F7093585F4F2AF09E3F510568F0B6C05EC19A
S1130F805F3FECF3983EDCF3869577956795B795CC
S1130F90F7959F5FC9F7880F911D9695879597F9E7
S1130FA00895E1E0660F771F881FBB1F6217730760
S1130FB08407BA0720F0621B730B840BBA0BEE1F75
S1130FC088F7E095089504D06894B11137C1089565
S1130FD01AD188F09F5790F0B92F9927B751A0F0F4
S1130FE0D1F0660F771F881F991F1AF0BA95C9F7B9
S1130FF012C0B13081F021D1B1E008951EC1672F34
S1131000782F8827B85F39F0B93FCCF38695779568
S11310106795B395D9F73EF4909580957095619551
S11310207F4F8F4F9F4F0895E89409C097FB3EF47C
S113103090958095709561957F4F8F4F9F4F992321
S1131040A9F0F92F96E9BB279395F695879577959F
S11310506795B795F111F8CFFAF4BB0F11F460FF5F
S11310601BC06F5F7F4F8F4F9F4F16C0882311F0B7
S113107096E911C0772321F09EE8872F762F05C0CB
S1131080662371F096E8862F70E060E02AF09A9566
S1131090660F771F881FDAF7880F9695879597F95B
S11310A00895990F0008550FAA0BE0E8FEEF1616F5
S11310B01706E807F907C0F012161306E407F50748
S11310C098F0621B730B840B950B39F40A2661F0BC
S11310D0232B242B252B21F408950A2609F4A1405F
S11310E0A6958FEF811D811D089597F99F6780E86C
S11310F070E060E008959FEF80EC0895DF93CF9354
S11311001F930F93FF92EF92DF927B018C016894FF
S113111005C0DA2EEF01AFD0FE01E894A591259128
S1131120359145915591AEF3EF0129DEFE0197010A
S1131130A801DA9479F7DF90EF90FF900F911F9157
S1131140CF91DF91089500240A9416161706180605
S11311500906089500240A941216130614060506B7
S11311600895C9CF50D0E8F3E894E0E0BB279F5737
S1131170F0F02AED3FE049EC06C0EE0FBB0F661F0E
S1131180771F881F28F0B23A62077307840728F094
S1131190B25A620B730B840BE3959A9572F78038FD
S11311A030F49A95BB0F661F771F881FD2F79048BB
S11311B026C1092E0394000C11F4882352F0BB0FAE
S11311C040F4BF2B11F460FF04C06F5F7F4F8F4F5B
S11311D09F4F0895EF93E0FF06C0A2EA2AED3FE097
S11311E049EC5FEBCCDDE5DF0F90039401FC9058F4
S11311F0E5E9F0E017C157FD9058440F551F59F029
S11312005F3F71F04795880F97FB991F61F09F3FEF
S113121079F087950895121613061406551FF2CF18
S11312204695F1DF08C0161617061806991FF1CF68
S113123086957105610508940895E894BB2766278F
S11312407727CB0197F908952CDF08F48FEF0895E1
S11312509B01AC0160E070E080E89FE34CCE0BD0D2
S1131260A8CF71DF28F076DF18F0952309F03DCF81
S113127042CF1124E3CFBFDFA0F3959FD1F3950FA5
S113128050E0551F629FF001729FBB27F00DB11D06
S1131290639FAA27F00DB11DAA1F649F6627B00D96
S11312A0A11D661F829F2227B00DA11D621F739F7F
S11312B0B00DA11D621F839FA00D611D221F749F8D
S11312C03327A00D611D231F849F600D211D822FD4
S11312D0762F6A2F11249F5750408AF0E1F088231B
S11312E04AF0EE0FFF1FBB1F661F771F881F915028
S11312F05040A9F79E3F510570F0F7CE9FCF5F3F56
S1131300ECF3983EDCF3869577956795B795F7955A
S1131310E7959F5FC1F7FE2B880F911D96958795E2
S113132097F908959F931EDF0F9007FCEE5F52CF4D
S113133011F40EF4E0CE61C066DFD0F39923D9F343
S1131340CEF39F57550B87FF66D00024A0E640EAF2
S1131350900180585695979528F4805C660F771F06
S1131360881F20F026173707480730F4621B730BD9
S1131370840B202931294A2BA695179407942025FC
S113138031254A2758F7660F771F881F20F0261744
S11313903707480730F4620B730B840B200D311DA3
S11313A0411DA09581F7B901842F9158880F969516
S11313B0879508959B01AC0152CFDF93D92FD2DEDC
S11313C0E695D7952AED3FE049E45FE3B33A620737
S11313D0730784079507D7952AF0A2EA49EC906829
S11313E0CEDCE7DEE3EBF0E01DD0DD0F0BF030DF09
S11313F0DD0F0BF49058DF9108959F3F31F0915029
S113140020F4879577956795B795880F911D9695E4
S1131410879597F9089591505040660F771F881F5C
S1131420D2F708959F938F937F936F93FF93EF93D6
S11314309B01AC0114DFEF91FF9160DE2F913F918E
S11314404F915F910CCF97FB072E16F4009407D0B1
S113145077FD09D00E94590A07FC05D03EF4909507
S113146081959F4F0895709561957F4F0895A1E2EE
S11314701A2EAA1BBB1BFD010DC0AA1FBB1FEE1F0A
S1131480FF1FA217B307E407F50720F0A21BB30B55
S1131490E40BF50B661F771F881F991F1A9469F7D1
S11314A060957095809590959B01AC01BD01CF012D
S11314B00895AA1BBB1B51E107C0AA1FBB1FA61797
S11314C0B70710F0A61BB70B881F991F5A95A9F7E9
S11314D080959095BC01CD010895A0E0B0E0E3E7CC
S11314E0FAE00C943C0DFE01359661917191AF01C7
S11314F080915C0190915D010E94B00AE2E00C943D
S1131500580D0F931F93CF93DF938C01E0915C01EF
S1131510F0915D01838181FF1BC0C0E0D0E005C074
S11315200995892B11F0CFEFDFEFF80181918F013D
S113153060915C0170915D01DB011896ED91FC9165
S113154019978111EDCF8AE00995892B09F402C01E
S1131550CFEFDFEFCE01DF91CF911F910F9108956F
S1131560ACE0B0E0E6EBFAE00C942C0D7C016B01EE
S11315708A01FC0117821682838181FFC6C18824F7
S11315808394912C8C0E9D1EF7019381F60193FD9B
S1131590859193FF81916F01882309F4B2C185324B
S11315A039F493FD859193FF81916F01853229F47C
S11315B0B70190E00E94A20CE7CF512C312C20E01F
S11315C02032A8F48B3261F028F4803251F0833257
S11315D071F40BC08D3239F0803349F4216028C096
S11315E02260246025C0286023C0206121C027FD1B
S11315F027C0382F30533A3078F426FF06C0FAE07B
S11316005F9E300D1124532E13C08AE0389E300D96
S11316101124332E20620CC08E3221F426FD71C1B8
S1131620206406C08C3611F4206802C0883641F468
S1131630F60193FD859193FF81916F018111C0CFD4
S1131640982F9554933018F09052933028F40C5FEF
S11316501F4FFFE3F9830DC0833631F0833771F0F8
S1131660833509F05EC023C0F801808189830E5F51
S11316701F4F44244394512C540115C03801F2E007
S11316806F0E711CF801A080B18026FF03C0652D88
S113169070E002C06FEF7FEFC5012C870E94970CAA
S11316A02C0183012C856FE7262E222218C03801D5
S11316B0F2E06F0E711CF801A080B18026FF03C018
S11316C0652D70E002C06FEF7FEFC5012C870E948B
S11316D08C0C2C012C8550E8252E222A830123FC16
S11316E01CC006C0B70180E290E00E94A20C3A94AC
S11316F0832D90E048165906A8F30FC0F50127FC86
S1131700859127FE81915F01B70190E00E94A20CB0
S113171031103A94F1E04F1A51084114510471F711
S1131720EDC0843611F0893641F5F80127FF07C072
S113173060817181828193810C5F1F4F08C0608139
S11317407181882777FD8095982F0E5F1F4F4FE694
S1131750B42EB22297FF09C090958095709561953B
S11317607F4F8F4F9F4FF0E8BF2A2AE030E0A4015B
S11317700E94CE0CA82EA81843C0853731F43FEE42
S1131780B32EB2222AE030E024C099EFB92EB2225F
S11317908F36B9F020F4883509F0B3C00DC0803716
S11317A021F0883709F0ADC002C020E1B22AB4FEAE
S11317B00BC084E0B82A08C024FF09C0E6E0BE2AB2
S11317C006C028E030E005C020E130E002C020E19E
S11317D032E0F801B7FE07C0608171818281938194
S11317E00C5F1F4F06C06081718180E090E00E5F46
S11317F01F4FA4010E94CE0CA82EA818FFE7BF22F9
S1131800B6FE0BC02B2D2E7FA51450F4B4FE0AC0D7
S1131810B2FC08C02B2D2E7E05C07A2C2B2D03C0C4
S11318207A2C01C0752C24FF0DC0FE01EA0DF11DB8
S11318308081803311F4297E09C022FF06C073948D
S1131840739404C0822F867809F0739423FD14C026
S113185020FF0FC05A2C731460F4530C5718732CC8
S113186008C0B70180E290E02C870E94A20C739418
S11318702C857314B0F304C0731410F4371801C02A
S1131880312C24FF12C0B70180E390E02C870E9422
S1131890A20C2C8522FF1EC021FF03C088E590E026
S11318A002C088E790E0B7010CC0822F867891F0DF
S11318B021FD02C080E201C08BE227FD8DE2B70169
S11318C090E00E94A20C06C0B70180E390E00E9461
S11318D0A20C5A94A514C0F3AA94F401EA0DF11DC4
S11318E0B701808190E00E94A20CA110F5CF06C040
S11318F0B70180E290E00E94A20C3A943110F8CF34
S113190043CEF7012681378102C02FEF3FEFC90193
S11319102C96E2E10C94480DFC0105906150704056
S11319200110D8F7809590958E0F9F1F0895FC01A4
S11319306150704001900110D8F7809590958E0FFA
S11319409F1F08950F931F93CF93DF938C01EB0197
S11319508B8181FD03C00FEF1FEF1AC082FF0DC002
S11319602E813F818C819D812817390764F4E88199
S1131970F9810193F983E88306C0E885F985802F0E
S11319800995892B41F78E819F8101969F838E83D0
S1131990C801DF91CF911F910F910895FA01AA27F1
S11319A0283051F1203181F1E8946F936E7F6E5F9E
S11319B07F4F8F4F9F4FAF4FB1E03ED0B4E03CD04C
S11319C0670F781F891F9A1FA11D680F791F8A1F2F
S11319D0911DA11D6A0F711D811D911DA11D20D096
S11319E009F468943F912AE0269F11243019305D50
S11319F03193DEF6CF010895462F4770405D419341
S1131A00B3E00FD0C9F7F6CF462F4F70405D4A338D
S1131A1018F0495D31FD4052419302D0A9F7EACF55
S1131A20B4E0A6959795879577956795BA95C9F784
S1131A3000976105710508959B01AC010A2E069477
S1131A405795479537952795BA95C9F7620F731F30
S1131A50841F951FA01D08952F923F924F925F926D
S1131A606F927F928F929F92AF92BF92CF92DF92AA
S1131A70EF92FF920F931F93CF93DF93CDB7DEB70F
S1131A80CA1BDB0B0FB6F894DEBF0FBECDBF0994A3
S1131A902A88398848885F846E847D848C849B84FA
S1131AA0AA84B984C884DF80EE80FD800C811B8108
S1131AB0AA81B981CE0FD11D0FB6F894DEBF0FBE37
S10D1AC0CDBFED010895F894FFCFA7
S1131ACA00000002000000006D0600000000464FFE
S1131ADA5257415244004241434B574152440053E6
S1131AEA544F50005249474854004C454654002527
S1051AFA640082
S9030000FC
